{
  "_format": "hh-sol-artifact-1",
  "contractName": "BuyMeACoffee",
  "sourceName": "contracts/BuyMeACoffee.sol",
  "abi": [
    {
      "inputs": [],
      "stateMutability": "nonpayable",
      "type": "constructor"
    },
    {
      "anonymous": false,
      "inputs": [
        {
          "indexed": true,
          "internalType": "address",
          "name": "from",
          "type": "address"
        },
        {
          "indexed": false,
          "internalType": "uint256",
          "name": "timestamp",
          "type": "uint256"
        },
        {
          "indexed": false,
          "internalType": "string",
          "name": "name",
          "type": "string"
        },
        {
          "indexed": false,
          "internalType": "string",
          "name": "message",
          "type": "string"
        }
      ],
      "name": "NewMemo",
      "type": "event"
    },
    {
      "inputs": [
        {
          "internalType": "string",
          "name": "_name",
          "type": "string"
        },
        {
          "internalType": "string",
          "name": "_message",
          "type": "string"
        }
      ],
      "name": "buyCoffee",
      "outputs": [],
      "stateMutability": "payable",
      "type": "function"
    },
    {
      "inputs": [],
      "name": "getMemos",
      "outputs": [
        {
          "components": [
            {
              "internalType": "address",
              "name": "from",
              "type": "address"
            },
            {
              "internalType": "uint256",
              "name": "timestamp",
              "type": "uint256"
            },
            {
              "internalType": "string",
              "name": "name",
              "type": "string"
            },
            {
              "internalType": "string",
              "name": "message",
              "type": "string"
            }
          ],
          "internalType": "struct BuyMeACoffee.Memo[]",
          "name": "",
          "type": "tuple[]"
        }
      ],
      "stateMutability": "view",
      "type": "function"
    },
    {
      "inputs": [],
      "name": "withdrawTips",
      "outputs": [],
      "stateMutability": "nonpayable",
      "type": "function"
    }
  ],
  "bytecode": "0x608060405234801561001057600080fd5b5033600160006101000a81548173ffffffffffffffffffffffffffffffffffffffff021916908373ffffffffffffffffffffffffffffffffffffffff160217905550610aaa806100616000396000f3fe6080604052600436106100345760003560e01c8063204206e1146100395780633aaa74b214610055578063865c51721461006c575b600080fd5b610053600480360381019061004e9190610661565b610097565b005b34801561006157600080fd5b5061006a61021f565b005b34801561007857600080fd5b50610081610281565b60405161008e91906108e7565b60405180910390f35b600034116100da576040517f08c379a00000000000000000000000000000000000000000000000000000000081526004016100d190610966565b60405180910390fd5b600060405180608001604052803373ffffffffffffffffffffffffffffffffffffffff16815260200142815260200184815260200183815250908060018154018082558091505060019003906000526020600020906004020160009091909190915060008201518160000160006101000a81548173ffffffffffffffffffffffffffffffffffffffff021916908373ffffffffffffffffffffffffffffffffffffffff1602179055506020820151816001015560408201518160020190805190602001906101a9929190610464565b5060608201518160030190805190602001906101c6929190610464565b5050503373ffffffffffffffffffffffffffffffffffffffff167fc56140e05f516509ae28110e0f72e17558a7561630dad2647c3ae87d986e365c428484604051610213939291906109ce565b60405180910390a25050565b600160009054906101000a900473ffffffffffffffffffffffffffffffffffffffff1673ffffffffffffffffffffffffffffffffffffffff166108fc479081150290604051600060405180830381858888f1935050505061027f57600080fd5b565b60606000805480602002602001604051908101604052809291908181526020016000905b8282101561045b57838290600052602060002090600402016040518060800160405290816000820160009054906101000a900473ffffffffffffffffffffffffffffffffffffffff1673ffffffffffffffffffffffffffffffffffffffff1673ffffffffffffffffffffffffffffffffffffffff1681526020016001820154815260200160028201805461033890610a42565b80601f016020809104026020016040519081016040528092919081815260200182805461036490610a42565b80156103b15780601f10610386576101008083540402835291602001916103b1565b820191906000526020600020905b81548152906001019060200180831161039457829003601f168201915b505050505081526020016003820180546103ca90610a42565b80601f01602080910402602001604051908101604052809291908181526020018280546103f690610a42565b80156104435780601f1061041857610100808354040283529160200191610443565b820191906000526020600020905b81548152906001019060200180831161042657829003601f168201915b505050505081525050815260200190600101906102a5565b50505050905090565b82805461047090610a42565b90600052602060002090601f01602090048101928261049257600085556104d9565b82601f106104ab57805160ff19168380011785556104d9565b828001600101855582156104d9579182015b828111156104d85782518255916020019190600101906104bd565b5b5090506104e691906104ea565b5090565b5b808211156105035760008160009055506001016104eb565b5090565b6000604051905090565b600080fd5b600080fd5b600080fd5b600080fd5b6000601f19601f8301169050919050565b7f4e487b7100000000000000000000000000000000000000000000000000000000600052604160045260246000fd5b61056e82610525565b810181811067ffffffffffffffff8211171561058d5761058c610536565b5b80604052505050565b60006105a0610507565b90506105ac8282610565565b919050565b600067ffffffffffffffff8211156105cc576105cb610536565b5b6105d582610525565b9050602081019050919050565b82818337600083830152505050565b60006106046105ff846105b1565b610596565b9050828152602081018484840111156106205761061f610520565b5b61062b8482856105e2565b509392505050565b600082601f8301126106485761064761051b565b5b81356106588482602086016105f1565b91505092915050565b6000806040838503121561067857610677610511565b5b600083013567ffffffffffffffff81111561069657610695610516565b5b6106a285828601610633565b925050602083013567ffffffffffffffff8111156106c3576106c2610516565b5b6106cf85828601610633565b9150509250929050565b600081519050919050565b600082825260208201905092915050565b6000819050602082019050919050565b600073ffffffffffffffffffffffffffffffffffffffff82169050919050565b600061073082610705565b9050919050565b61074081610725565b82525050565b6000819050919050565b61075981610746565b82525050565b600081519050919050565b600082825260208201905092915050565b60005b8381101561079957808201518184015260208101905061077e565b838111156107a8576000848401525b50505050565b60006107b98261075f565b6107c3818561076a565b93506107d381856020860161077b565b6107dc81610525565b840191505092915050565b60006080830160008301516107ff6000860182610737565b5060208301516108126020860182610750565b506040830151848203604086015261082a82826107ae565b9150506060830151848203606086015261084482826107ae565b9150508091505092915050565b600061085d83836107e7565b905092915050565b6000602082019050919050565b600061087d826106d9565b61088781856106e4565b935083602082028501610899856106f5565b8060005b858110156108d557848403895281516108b68582610851565b94506108c183610865565b925060208a0199505060018101905061089d565b50829750879550505050505092915050565b600060208201905081810360008301526109018184610872565b905092915050565b600082825260208201905092915050565b7f63616e27742062757920636f6666656520776974682030206574680000000000600082015250565b6000610950601b83610909565b915061095b8261091a565b602082019050919050565b6000602082019050818103600083015261097f81610943565b9050919050565b61098f81610746565b82525050565b60006109a08261075f565b6109aa8185610909565b93506109ba81856020860161077b565b6109c381610525565b840191505092915050565b60006060820190506109e36000830186610986565b81810360208301526109f58185610995565b90508181036040830152610a098184610995565b9050949350505050565b7f4e487b7100000000000000000000000000000000000000000000000000000000600052602260045260246000fd5b60006002820490506001821680610a5a57607f821691505b60208210811415610a6e57610a6d610a13565b5b5091905056fea26469706673582212202408d7c6cc631ece80e5c7e5bdf7f71bc22ef51c6c730b68f9c6aa14b272bb1664736f6c63430008090033",
  "linkReferences": {},
  "deployedLinkReferences": {}
}